{
  "contractName": "EurCA",
  "abi": [
    {
      "inputs": [
        {
          "internalType": "address",
          "name": "_oracleAddress",
          "type": "address"
        }
      ],
      "stateMutability": "nonpayable",
      "type": "constructor"
    },
    {
      "inputs": [],
      "name": "maxUnpaidInstallments",
      "outputs": [
        {
          "internalType": "uint256",
          "name": "",
          "type": "uint256"
        }
      ],
      "stateMutability": "view",
      "type": "function"
    },
    {
      "inputs": [
        {
          "internalType": "address",
          "name": "",
          "type": "address"
        }
      ],
      "name": "wallets",
      "outputs": [
        {
          "internalType": "string",
          "name": "bankAccount",
          "type": "string"
        },
        {
          "internalType": "uint256",
          "name": "lockedLiquidity",
          "type": "uint256"
        },
        {
          "internalType": "uint256",
          "name": "tokenEurekaMinted",
          "type": "uint256"
        },
        {
          "internalType": "uint256",
          "name": "missingInstallments",
          "type": "uint256"
        },
        {
          "internalType": "uint256",
          "name": "totalInterestRate",
          "type": "uint256"
        }
      ],
      "stateMutability": "view",
      "type": "function"
    },
    {
      "inputs": [
        {
          "internalType": "string",
          "name": "_bankAccount",
          "type": "string"
        }
      ],
      "name": "linkBankAccount",
      "outputs": [],
      "stateMutability": "nonpayable",
      "type": "function"
    },
    {
      "inputs": [
        {
          "internalType": "uint256",
          "name": "_capital",
          "type": "uint256"
        }
      ],
      "name": "lockLiquidity",
      "outputs": [],
      "stateMutability": "nonpayable",
      "type": "function"
    },
    {
      "inputs": [
        {
          "internalType": "uint256",
          "name": "_rate",
          "type": "uint256"
        }
      ],
      "name": "paybackRate",
      "outputs": [],
      "stateMutability": "nonpayable",
      "type": "function"
    }
  ],
  "bytecode": "0x608060405234801561000f575f80fd5b5060405161089638038061089683398101604081905261002e91610052565b5f80546001600160a01b0319166001600160a01b039290921691909117905561007f565b5f60208284031215610062575f80fd5b81516001600160a01b0381168114610078575f80fd5b9392505050565b61080a8061008c5f395ff3fe608060405234801561000f575f80fd5b5060043610610055575f3560e01c806306a2bce9146100595780632bfbd9cf1461006e57806389b08f1114610081578063c01419b3146100ae578063fa63462f146100c1575b5f80fd5b61006c610067366004610422565b6100d7565b005b61006c61007c3660046104cd565b610242565b61009461008f3660046104e4565b6102e1565b6040516100a5959493929190610554565b60405180910390f35b61006c6100bc3660046104cd565b610394565b6100c9600381565b6040519081526020016100a5565b335f90815260026020526040902080546100f09061058a565b1590506101555760405162461bcd60e51b815260206004820152602860248201527f42616e6b206163636f756e7420616c7265616479206c696e6b656420746f2061604482015267103bb0b63632ba1760c11b60648201526084015b60405180910390fd5b5f8054604051630a42479b60e01b81526001600160a01b0390911690630a42479b9061018790339086906004016105c2565b602060405180830381865afa1580156101a2573d5f803e3d5ffd5b505050506040513d601f19601f820116820180604052508101906101c691906105ed565b9050806102255760405162461bcd60e51b815260206004820152602760248201527f42616e6b206163636f756e742773206c6971756964697479206973206e6f742060448201526632b737bab3b41760c91b606482015260840161014c565b335f90815260026020526040902061023d8382610659565b505050565b335f908152600260205260409020805461025b9061058a565b90505f0361027b5760405162461bcd60e51b815260040161014c90610715565b335f9081526002602052604090206001018190556103e861029d826018610772565b6102a7919061078f565b335f908152600260205260409020600101546064906102c790605a610772565b6102d1919061078f565b6102db91906107ae565b60015550565b60026020525f90815260409020805481906102fb9061058a565b80601f01602080910402602001604051908101604052809291908181526020018280546103279061058a565b80156103725780601f1061034957610100808354040283529160200191610372565b820191905f5260205f20905b81548152906001019060200180831161035557829003601f168201915b5050505050908060010154908060020154908060030154908060040154905085565b335f90815260026020526040902080546103ad9061058a565b90505f036103cd5760405162461bcd60e51b815260040161014c90610715565b335f90815260026020526040812060010180548392906103ee9084906107c1565b925050819055508060015f82825461040691906107c1565b909155505050565b634e487b7160e01b5f52604160045260245ffd5b5f60208284031215610432575f80fd5b813567ffffffffffffffff80821115610449575f80fd5b818401915084601f83011261045c575f80fd5b81358181111561046e5761046e61040e565b604051601f8201601f19908116603f011681019083821181831017156104965761049661040e565b816040528281528760208487010111156104ae575f80fd5b826020860160208301375f928101602001929092525095945050505050565b5f602082840312156104dd575f80fd5b5035919050565b5f602082840312156104f4575f80fd5b81356001600160a01b038116811461050a575f80fd5b9392505050565b5f81518084525f5b8181101561053557602081850181015186830182015201610519565b505f602082860101526020601f19601f83011685010191505092915050565b60a081525f61056660a0830188610511565b90508560208301528460408301528360608301528260808301529695505050505050565b600181811c9082168061059e57607f821691505b6020821081036105bc57634e487b7160e01b5f52602260045260245ffd5b50919050565b6001600160a01b03831681526040602082018190525f906105e590830184610511565b949350505050565b5f602082840312156105fd575f80fd5b8151801515811461050a575f80fd5b601f82111561023d575f81815260208120601f850160051c810160208610156106325750805b601f850160051c820191505b818110156106515782815560010161063e565b505050505050565b815167ffffffffffffffff8111156106735761067361040e565b61068781610681845461058a565b8461060c565b602080601f8311600181146106ba575f84156106a35750858301515b5f19600386901b1c1916600185901b178555610651565b5f85815260208120601f198616915b828110156106e8578886015182559484019460019091019084016106c9565b508582101561070557878501515f19600388901b60f8161c191681555b5050505050600190811b01905550565b60208082526029908201527f42616e6b206163636f756e74206973206e6f74206c696e6b656420746f20616e6040820152683c903bb0b63632ba1760b91b606082015260800190565b634e487b7160e01b5f52601160045260245ffd5b80820281158282048414176107895761078961075e565b92915050565b5f826107a957634e487b7160e01b5f52601260045260245ffd5b500490565b808201808211156107895761078961075e565b818103818111156107895761078961075e56fea26469706673582212201c3782b58bc766d2684e8eda641b75d2484852e94ed27181205f1129396567fc64736f6c63430008150033",
  "immutableReferences": {},
  "source": "// SPDX-License-Identifier: MIT\npragma solidity >=0.4.22 <0.9.0;\n\ninterface OracleInterface{\n  function bankAccountLiquidityCheck(address _wallet, string memory _bankAccount) external view returns(bool);\n}\n\ncontract EurCA {\n\n  OracleInterface private oracle;\n  uint256 eurekaTokenQuantity;\n  \n  struct Wallet{\n    string bankAccount;\n    uint256 lockedLiquidity;\n    uint256 tokenEurekaMinted;\n    uint256 missingInstallments;\n    uint256 totalInterestRate;\n  }\n\n  mapping (address => Wallet) public wallets;\n\n  uint256 public constant maxUnpaidInstallments = 3;\n\n  constructor(address _oracleAddress) {\n    oracle = OracleInterface(_oracleAddress);\n  }\n\n  function linkBankAccount(string memory _bankAccount) external{\n    require(bytes(wallets[msg.sender].bankAccount).length == 0, \"Bank account already linked to a wallet.\");\n    bool isLiquidityVerified = oracle.bankAccountLiquidityCheck(msg.sender, _bankAccount);\n\n    require(isLiquidityVerified, \"Bank account's liquidity is not enough.\");\n    wallets[msg.sender].bankAccount = _bankAccount;\n  }\n\n  function lockLiquidity(uint256 _capital) external{\n    require(bytes(wallets[msg.sender].bankAccount).length != 0, \"Bank account is not linked to any wallet.\");\n    wallets[msg.sender].lockedLiquidity = _capital;\n\n    // Quantity of Eureka minted with a 90% ot the locked liquidity plus 2,4% of total interest.\n    eurekaTokenQuantity = (wallets[msg.sender].lockedLiquidity * 90) / 100 + (wallets[msg.sender].lockedLiquidity * 24) / 1000;\n  }\n\n  function paybackRate(uint256 _rate) external{\n    require(bytes(wallets[msg.sender].bankAccount).length != 0, \"Bank account is not linked to any wallet.\");\n\n    wallets[msg.sender].lockedLiquidity -= _rate;\n    eurekaTokenQuantity -= _rate;\n  }\n\n}",
  "sourcePath": "/home/ivan/MEGA/___Formazione/____SOLIDITY/___ProjectWork - Eureka!/EurCA/contracts/EurCA.sol",
  "compiler": {
    "name": "solc",
    "version": "0.8.21+commit.d9974bed.Emscripten.clang"
  },
  "schemaVersion": "3.4.16",
  "updatedAt": "2023-12-19T14:19:19.000Z",
  "devdoc": {
    "kind": "dev",
    "methods": {},
    "version": 1
  },
  "userdoc": {
    "kind": "user",
    "methods": {},
    "version": 1
  }
}